:1000000071C000008EC000008CC000008AC00000DB
:1000100088C0000086C0000084C0000082C00000CC
:1000200080C000007EC000007CC000007AC00000DC
:1000300078C0000076C0000074C0000072C00000EC
:1000400070C000007CC000006CC000006AC00000EE
:1000500068C0000066C0000064C0000062C000000C
:1000600060C000005EC000005CC000005AC000001C
:1000700058C0000056C0000054C0000052C000002C
:1000800050C000004EC000004CC000004AC000003C
:1000900048C0000046C0000044C0000042C000004C
:1000A00040C000003EC000003CC000003AC000005C
:1000B00038C0000036C0000034C0000032C000006C
:1000C00030C000002EC000002CC000002AC000007C
:1000D00028C0000026C0000024C0000022C000008C
:1000E00020C0000011241FBECFEFD1E2DEBFCDBF84
:1000F00000E00CBF12E0A0E0B2E0EEE9F3E000E0C7
:100100000BBF02C007900D92AA30B107D9F722E0C9
:10011000AAE0B2E001C01D92A631B207E1F768D0B3
:100120003CC16ECF8DE08093810088E09DE3909389
:1001300089008093880082E080936F0008951F9269
:100140000F920FB60F9211248F939F93079939C086
:10015000809114029091150201969093150280935C
:1001600014028091140290911502CC9751F51092CF
:1001700015021092140280911202909113020196BE
:1001800090931302809312028091120290911302B5
:10019000CC97B9F4109213021092120280911002BF
:1001A0009091110201969093110280931002809118
:1001B000100290911102489721F4109211021092AE
:1001C000100280910A0290910B021816190634F45D
:1001D000019790930B0280930A0203C08EB18F7730
:1001E0008EB99F918F910F900FBE0F901F90189511
:1001F0008FE78AB987B984B981B98FEF80BB8DB990
:1002000091DF78941F9B1AC0809100018831B0F46F
:10021000809103018C3390F48091000190E09093E1
:100220001102809310028091030190E090931302D9
:100230008093120210921502109214024F9B16C066
:1002400080910001883190F4809103018C3370F427
:100250008091000190E090930F0280930E028091B4
:10026000030190E090930D0280930C02379B25C010
:1002700020910E0230910F02809110029091110294
:1002800028173907D1F420910C0230910D0280918A
:100290001202909113022817390779F48091140201
:1002A00090911502892B49F48EB180688EB98AE04D
:1002B00090E090930B0280930A028091100290913B
:1002C00011022AE030E0B90141D0FB01E050FE4FBD
:1002D000808182B98091100290911102B90136D0CB
:1002E000FC01E050FE4F808185B98091120290910F
:1002F0001302B9012BD0FB01E050FE4F808188B979
:100300008091120290911302B90120D0FC01E050BB
:10031000FE4F80818BB94EB18091140290911502ED
:10032000B90114D0FB01E050FE4F9081842F8078FA
:10033000892B8EB98091140290911502B90106D0D3
:10034000FC01E050FE4F808181BB5CCF97FB072E04
:1003500016F4009406D077FD08D00BD007FC05D02A
:100360003EF4909581959F4F0895709561957F4FCC
:100370000895AA1BBB1B51E107C0AA1FBB1FA617EC
:10038000B70710F0A61BB70B881F991F5A95A9F73E
:0E03900080959095BC01CD010895F894FFCFA3
:0A039E003F065B4F666D7D077F6F21
:00000001FF
